:04000000B7EF01F065
:08000800046ED8CF05F0E0CF33
:1000100006F00001E9CF0CF0EACF07F0E1CF08F0DD
:10002000E2CF09F0D9CF0AF0DACF0BF0F3CF12F01C
:10003000F4CF13F0FACF14F000C00EF001C00FF0AF
:1000400002C010F003C011F09DAA2AEF00F09EBA82
:100050004BEF00F00EC000F00FC001F010C002F036
:1000600011C003F00CC0E9FF07C0EAFF078E08C00B
:10007000E1FF09C0E2FF0AC0D9FF0BC0DAFF12C0DE
:10008000F3FF13C0F4FF14C0FAFF045006C0E0FFF2
:1000900005C0D8FF1000036A1D50180FE96E000E4E
:1000A0000320EA6E9EAAFED7AECFEFFF18502108BC
:1000B00009E11C5207E11D2A1D50030803E21D6AD5
:1000C000010E1C6E9E9A2AEF00F08E0E006E2DC05F
:1000D00001F02CC002F0036A015209E102C001F0F4
:1000E000026A080E005E015202E1006A08D0D89050
:1000F00001BE04D0023601360006F9D7019EF4EFA6
:1001000001F02C50D8B471D0006E3050D8B46DD0FE
:10011000002604E3810E002668E204D07F0E005E14
:1001200064E363E02DC034F03150341A2D8E318EEB
:100130002F503302F4CF36F02E503202F4CF03F0BA
:10014000F3CF35F03302F3503626F4503522000E4B
:1001500003222F503202F3503626F4503522000E7F
:10016000026A032202222D503302F3503526F45046
:100170000322000E02222D503202F3500326F450C7
:100180000222000E016A01222F503102F35035265F
:10019000F4500322000E022201222E503102F350AD
:1001A0000326F4500222000E01222D503102F3509A
:1001B0000226F4500122002A01BE05D0353603364E
:1001C000023601360006000E35AE0AD0032A02229E
:1001D0000122015005E1025003E1035001E1002A30
:1001E00034BE018E34AE019E04D0006A016A026AF8
:1001F000036A05EF02F08E0E006E2C50005E2DC0DB
:1002000002F02EC001F0028E005209E0D890025296
:1002100002E1015204E002320132002EF7D72DAE86
:1002200005D0011E021E012AD8B4022A0EEF02F0E8
:10023000EACF34F0E9CF33F02DAE08D0338E33A8B7
:10024000332A2C1E2D1E2C2AD8B42D2A2D38F00925
:100250002F6E2F26E20F306E320F326E2D500F0BA5
:10026000302630263226E90F316E312631262C38E1
:100270000F0B3126322631363236321E32362C50B2
:100280000F0B32262F36070E2E6E0A0E310632263F
:10029000FDE330063126FDE32F063026FDE32E0672
:1002A0002F26FDE3EA6A2E0EE96E070E3314339C07
:1002B000E906331407E133B8E92A33B803D0200E36
:1002C000006E1CD0E926320EE95CD8B4338CEF50B6
:1002D000006E08E133BC06D033B814D033B602D078
:1002E000200E0BD033AE06D02D0E006EED50339C99
:1002F000339E04D033863398300E002600509EA8DB
:10030000FED7AD6EEE5033ACDED719EF02F0016AC6
:10031000026A006A036A315002E1305018E0100EA0
:10032000326ED8902E362F36003603363150035CAD
:1003300002E13050005C07E33050005ED8A00306B5
:100340003150035ED88001360236322EEAD71200D1
:100350002E503002F3CF01F0F4CF00F03102F35011
:1003600000262F503002F3500020026E1200F86A6F
:10037000D09E078E810EAF6EA60EAC6E900EAB6E49
:100380001C6A1D6AC180C182C184C196070EB46E09
:10039000166A176A820E946E9D8AC00EF212800E43
:1003A000D56ED26A94908B90070E006E002EFED709
:1003B00000D0000094908B80100E006E002EFED7AF
:1003C000000094908B90948282A2FDD7D76AD66A5F
:1003D000948282B2FDD7D650226ED7CF23F023C0AD
:1003E0002DF022C02CF071D603C02FF002C02EF0E9
:1003F00001C02DF000C02CF0960E336E430E326E0D
:100400000B0E316E790E306E7CD603C02FF002C019
:100410002EF001C02DF000C02CF0EDD602C01FF070
:1004200001C01EF0100EE96E1FC02DF01EC02CF092
:10043000FFD6240E9EA8FED7AD6E1F5002080AE21A
:10044000FF0A03E11E50E70805E2246A256A969038
:100450008D8049D01F5203E11E50630823E21FC064
:100460002FF01EC02EF0316A640E306E50DF01C0D6
:1004700024F01FC02FF01EC02EF0316A640E306EC3
:1004800046DF00C02CF003C02DF003C02FF000C0E9
:100490002EF0316A0A0E306E3ADF01C025F09690D8
:1004A0008D8021D01F5203E11E50090817E21FC0A2
:1004B0002FF01EC02EF0316A0A0E306E28DF01C008
:1004C00024F01FC02FF01EC02EF0316A0A0E306ECD
:1004D0001EDF00C025F096908D9005D0246A1EC0C6
:1004E00025F096908D902538006EF00E0016005085
:1004F0002424936A8A6E1C2C2CD0300E195C266E34
:10050000276A300E1A5C286E296A300E1B5C2A6E30
:100510002B6A2F6A640E2E6E27C031F026C030F091
:1005200017DF02C02DF001C02CF02F6A0A0E2E6ECC
:1005300029C031F028C030F00BDF01502C260250CA
:100540002D222A502C24206E2B502D20216E1C6A27
:1005500007D0205205E1215203E1216A190E206ED5
:1005600021501F5C09E303E11E50205C05E29694D4
:100570008D9496928D7204D096948D8496928D92DD
:0405800011D703008C
:020000040030CA
:0E00000000220C0E000081000FC00FE00F4028
:00000001FF
;PIC18F458
;CRC=C28E  CREATED="10-mai-20 22:21"
