:1000000042EF01F08E0E006E1EC001F01DC002F026
:10001000036A015209E102C001F0026A080E005EA3
:10002000015202E1006A08D0D89001BE04D0023625
:1000300001360006F9D7019E12001D50D8B471D0C8
:10004000006E2150D8B46DD0002604E3810E002646
:1000500068E204D07F0E005E64E363E01EC025F01A
:100060002250251A1E8E228E20502402F4CF27F013
:100070001F502302F4CF03F0F3CF26F02402F350F5
:100080002726F4502622000E032220502302F3508C
:100090002726F4502622000E026A032202221E5056
:1000A0002402F3502626F4500322000E02221E5092
:1000B0002302F3500326F4500222000E016A0122AB
:1000C00020502202F3502626F4500322000E022272
:1000D00001221F502202F3500326F4500222000E88
:1000E00001221E502202F3500226F4500122002A5F
:1000F00001BE05D026360336023601360006000E54
:1001000026AE0AD0032A02220122015005E1025044
:1001100003E1035001E1002A25BE018E25AE019EB8
:1001200004D0006A016A026A036A12008E0E006E31
:100130001B50005E1CC002F01DC001F0028E005278
:1001400009E0D890025202E1015204E00232013289
:10015000002EF7D71CAE05D0011E021E012AD8B40E
:10016000022A1200EACF23F0E9CF22F01CAE08D019
:10017000228E22A8222A1B1E1C1E1B2AD8B41C2A2F
:100180001C38F0091E6E1E26E20F1F6E320F216E04
:100190001C500F0B1F261F262126E90F206E20263C
:1001A00020261B380F0B2026212620362136211E23
:1001B00021361B500F0B21261E36070E1D6E0A0E10
:1001C00020062126FDE31F062026FDE31E061F262E
:1001D000FDE31D061E26FDE3EA6A1D0EE96E070E0D
:1001E0002214229CE906221407E122B8E92A22B847
:1001F00003D0200E006E1CD0E926210EE95CD8B495
:10020000228CEF50006E08E122BC06D022B814D038
:1002100022B602D0200E0BD022AE06D02D0E006EDC
:10022000ED50229C229E04D022862298300E002679
:1002300000509EA8FED7AD6EEE5022ACDED7C9EFBF
:1002400001F0016A026A006A036A205002E11F504D
:1002500018E0100E216ED8901D361E36003603367B
:100260002050035C02E11F50005C07E31F50005E5A
:10027000D8A003062050035ED88001360236212E16
:10028000EAD71200F86AD09E810EAF6EA60EAC6E51
:10029000900EAB6E0E6A0F6AC180C182C184C19696
:1002A000070EB46E046A056A136A320E126E820E6D
:1002B000946E9D8AC00EF212800ED56E94908B9033
:1002C000070E006E002EFED700D0000094908B80A9
:1002D000100E006E002EFED7000094908B9094823A
:1002E00082A2FDD7D76AD66A948282B2FDD7D65051
:1002F000D7CF03F01B6ED7CF1CF0D7CF1EF01D6EEB
:1003000081DE03C020F002C01FF001C01EF000C05B
:100310001DF0CD0E246ECC0E236E4C0E226E7F0E81
:10032000216E8BDE03C01EF002C01DF001C01CF068
:1003300000C01BF0FBDE02C015F001C014F015C0B8
:100340001EF014C01DF05EDE03C020F002C01FF0DE
:1003500001C01EF000C01DF0960E246E430E236EE9
:100360000B0E226E790E216E68DE03C01EF002C0F5
:100370001DF001C01CF000C01BF0D8DE02C011F05F
:1003800001C010F0100EE96E11C01CF010C01BF07F
:10039000E9D6240E9EA8FED7AD6E115002080AE2DF
:1003A000FF0A03E11050E70805E2166A176A969003
:1003B0008D8049D0115203E11050630823E211C02F
:1003C0001EF010C01DF0206A640E1F6E3ADF01C0DF
:1003D00016F011C01EF010C01DF0206A640E1F6ED2
:1003E00030DF00C01BF003C01CF003C01EF000C0D3
:1003F0001DF0206A0A0E1F6E24DF01C017F09690D0
:100400008D8021D0115203E11050090817E211C06C
:100410001EF010C01DF0206A0A0E1F6E12DF01C010
:1004200016F011C01EF010C01DF0206A0A0E1F6EDB
:1004300008DF00C017F096908D9005D0166A10C0A6
:1004400017F096908D901738006EF00E0016005041
:100450001624936A8A6E0E2C15D0300E075C186E27
:10046000040E085C196E300E095C1A6E1950640D8A
:10047000F3CF1BF019500A0DF3501B241A24136AF2
:10048000126E0E6A1350115C09E303E11050125C06
:1004900005E296948D9496928D7204D096948D84F4
:0804A00096928D920BD7030028
:020000040030CA
:0E00000000220C0E000081000FC00FE00F4028
:00000001FF
;PIC18F458
;CRC=83F6  CREATED="09-mai-20 21:41"
