:1000000042EF01F08E0E006E1AC001F019C002F02E
:10001000036A015209E102C001F0026A080E005EA3
:10002000015202E1006A08D0D89001BE04D0023625
:1000300001360006F9D7019E12001950D8B471D0CC
:10004000006E1D50D8B46DD0002604E3810E00264A
:1000500068E204D07F0E005E64E363E01AC021F022
:100060001E50211A1A8E1E8E1C502002F4CF23F02F
:100070001B501F02F4CF03F0F3CF22F02002F35005
:100080002326F4502222000E03221C501F02F3509C
:100090002326F4502222000E026A032202221A5062
:1000A0002002F3502226F4500322000E02221A509E
:1000B0001F02F3500326F4500222000E016A0122AF
:1000C0001C501E02F3502226F4500322000E02227E
:1000D00001221B501E02F3500326F4500222000E90
:1000E00001221A501E02F3500226F4500122002A67
:1000F00001BE05D022360336023601360006000E58
:1001000022AE0AD0032A02220122015005E1025048
:1001100003E1035001E1002A21BE018E21AE019EC0
:1001200004D0006A016A026A036A12008E0E006E31
:100130001750005E18C002F019C001F0028E005284
:1001400009E0D890025202E1015204E00232013289
:10015000002EF7D718AE05D0011E021E012AD8B412
:10016000022A1200EACF1FF0E9CF1EF018AE08D025
:100170001E8E1EA81E2A171E181E172AD8B4182A4B
:100180001838F0091A6E1A26E20F1B6E320F1D6E18
:1001900018500F0B1B261B261D26E90F1C6E1C2654
:1001A0001C2617380F0B1C261D261C361D361D1E3F
:1001B0001D3617500F0B1D261A36070E196E0A0E24
:1001C0001C061D26FDE31B061C26FDE31A061B2646
:1001D000FDE319061A26FDE3EA6A190EE96E070E19
:1001E0001E141E9CE9061E1407E11EB8E92A1EB85B
:1001F00003D0200E006E1CD0E9261D0EE95CD8B499
:100200001E8CEF50006E08E11EBC06D01EB814D044
:100210001EB602D0200E0BD01EAE06D02D0E006EE4
:10022000ED501E9C1E9E04D01E861E98300E002689
:1002300000509EA8FED7AD6EEE501EACDED7C9EFC3
:1002400001F0016A026A006A036A1C5002E11B5055
:1002500018E0100E1D6ED89019361A360036033687
:100260001C50035C02E11B50005C07E31B50005E66
:10027000D8A003061C50035ED880013602361D2E1E
:10028000EAD71200F86AD09E810EAF6EA60EAC6E51
:10029000900EAB6E0A6A0B6AC180C182C184C1969E
:1002A000070EB46E046A056A0F6A320E0E6E820E75
:1002B000946E9D8AC00EF212800ED56E94908B9033
:1002C000070E006E002EFED700D0000094908B80A9
:1002D000100E006E002EFED7000094908B9094823A
:1002E00082A2FDD7D76AD66A948282B2FDD7D65051
:1002F000D7CF03F0176ED7CF18F0D7CF1AF0196EFB
:1003000081DE03C01CF002C01BF001C01AF000C067
:1003100019F0CD0E206ECC0E1F6E4C0E1E6E7F0E91
:100320001D6E8BDE03C01AF002C019F001C018F078
:1003300000C017F0FBDE02C011F001C010F011C0C8
:100340001AF010C019F05EDE03C01CF002C01BF0F2
:1003500001C01AF000C019F0960E206E430E1F6EF9
:100360000B0E1E6E790E1D6E68DE03C01AF002C001
:1003700019F001C018F000C017F0D8DE02C00DF06F
:1003800001C00CF0100EE96E0DC018F00CC017F093
:10039000E9D60D5002080AE2FF0A03E10C50E70813
:1003A00005E2126A136A96908D8049D00D5203E1DE
:1003B0000C50630823E20DC01AF00CC019F01C6A3F
:1003C000640E1B6E3EDF01C012F00DC01AF00CC0AF
:1003D00019F01C6A640E1B6E34DF00C017F003C0F6
:1003E00018F003C01AF000C019F01C6A0A0E1B6E48
:1003F00028DF01C013F096908D8021D00D5203E1CB
:100400000C50090817E20DC01AF00CC019F01C6A54
:100410000A0E1B6E16DF01C012F00DC01AF00CC0E0
:1004200019F01C6A0A0E1B6E0CDF00C013F09690C8
:100430008D9005D0126A0CC013F096908D901338F1
:10044000006EF00E001600501224936A8A6E0A2C79
:1004500015D0300E075C146E040E085C156E300E5D
:10046000095C166E1550640DF3CF17F015500A0D88
:10047000F350172416240F6A0E6E0A6A0F500D5C93
:1004800009E303E10C500E5C05E296948D9496927C
:100490008D7204D096948D8496928D920FD703001E
:020000040030CA
:0E00000000220C0E000081000FC00FE00F4028
:00000001FF
;PIC18F458
;CRC=5A11  CREATED="08-mai-20 16:55"
